:020000040800F2
:100000000050002001040008DD020008DF020008A3
:10001000E1020008E3020008E50200080000000019
:10002000000000000000000000000000E7020008DF
:10003000E902000800000000EB020008ED020008E1
:10004000490400084904000849040008490400085C
:100050004904000849040008F502000849040008A2
:100060004904000849040008FF0200084904000888
:10007000490400084904000849040008490400082C
:10008000490400084904000849040008490400081C
:10009000490400084904000849040008090300084D
:1000A00049040008490400084904000849040008FC
:1000B00049040008490400084904000849040008EC
:1000C00049040008490400084904000849040008DC
:1000D00049040008490400084904000849040008CC
:1000E0004904000849040008490400080000000011
:1000F0000000000000000000000000000000000000
:0C01000000000000000000005FF808F1A3
:10010C0010B5054C237833B9044B13B10448AFF345
:10011C0000800123237010BD3C040020000000006F
:10012C007012000808B5034B1BB103490348AFF329
:10013C00008008BD00000000400400207012000880
:10014C0030B589B0002404940594069407942C4B84
:10015C009A6942F020029A619A6902F02002019297
:10016C00019A9A6942F004029A619A6902F00402B7
:10017C000292029A9A6942F008029A619B6903F012
:10018C0008030393039BF02304931E4D059504A9C8
:10019C001D4800F00BFA01230493059506941B4DA2
:1001AC0004A9284600F002FA02230493059307934E
:1001BC0004A9284600F0FAF9C023049312230593EE
:1001CC000323079304A9284600F0F0F922462146A0
:1001DC00062000F091F9062000F0C6F922462146CF
:1001EC000A2000F089F90A2000F0BEF922462146C7
:1001FC00172000F081F9172000F0B6F909B030BDD6
:10020C00001002400000111000080140000C0140D9
:10021C0072B6FEE700B591B02822002106A800F0C6
:10022C005FFF002301930293039304930593012230
:10023C0006924FF4803307930A9202220D920E938A
:10024C004FF4E0130F9306A800F0E8FA80B90F23DF
:10025C00019302210291002303934FF480620492D4
:10026C00059301A800F00CFD20B911B05DF804FB5A
:10027C00FFF7CEFFFFF7CCFF08B500F007F9FFF74B
:10028C00C9FFFFF75DFF00F045F8FEE782B00E4BAB
:10029C009A6942F001029A619A6902F00102009295
:1002AC00009ADA6942F08052DA61DB6903F080531C
:1002BC000193019B054A536823F0E06343F00073FC
:1002CC00536002B0704700BF0010024000000140B4
:1002DC00FEE7FEE7FEE7FEE7FEE770477047704774
:1002EC0008B500F0E5F808BD08B5012000F072FA79
:1002FC0008BD08B5102000F06DFA08BD08B5202027
:10030C0000F068FA402000F065FA802000F062FAF4
:10031C0008BD704700B587B0002302930393049384
:10032C0005930093019315484FF08042026043609F
:10033C0083604FF6FF72C2600361836100F0BEFD03
:10034C0090B94FF48053029302A90C4800F0EEFDD3
:10035C0068B90023009301936946084800F066FED3
:10036C0040B907B05DF804FBFFF752FFE9E7FFF770
:10037C004FFFEEE7FFF74CFFF3E700BF58040020F8
:10038C0000B587B00023029303930493059303688D
:10039C00B3F1804F02D007B05DF804FB03F50433D2
:1003AC00DA6942F00102DA61DA6902F001020092C4
:1003BC00009A9A6942F008029A619B6903F008035B
:1003CC000193019B4FF44063029302230393059323
:1003DC0002A9064800F0EAF8054A536823F4407372
:1003EC0043F0E06343F400735360D4E7000C014026
:1003FC0000000140FFF78DFF0B480C490C4A00230D
:10040C0002E0D458C4500433C4188C42F9D3094ABE
:10041C00094C002301E013600432A242FBD300F02C
:10042C003BFEFFF729FF7047000000203C04002032
:10043C00BC1200083C040020A8040020FEE70000C9
:10044C0010B504460E4B18784FF47A73B3FBF0F3E7
:10045C000C4A1068B0FBF3F000F094F868B90F2C5C
:10046C0001D901200AE0002221464FF0FF3000F0B4
:10047C0043F8054B1C60002000E0012010BD00BFBC
:10048C0004000020000000200800002008B5074AE6
:10049C00136843F010031360032000F01BF80F20C7
:1004AC00FFF7CEFFFFF7F2FE002008BD0020024050
:1004BC00034A1168034B1B780B441360704700BF51
:1004CC00A004002004000020014B1868704700BFF6
:1004DC00A0040020074AD36823F4E0631B041B0C20
:1004EC00000200F4E060034343F0BF6343F40033C5
:1004FC00D360704700ED00E000B5194BDB68C3F327
:10050C000223C3F1070CBCF1040F28BF4FF0040CFD
:10051C0003F1040EBEF1060F18D9033B4FF0FF3E5A
:10052C000EFA0CFC21EA0C0199400EFA03F322EAB4
:10053C000303194300280BDB0901C9B200F1604029
:10054C0000F5614080F800135DF804FB0023E5E73B
:10055C0000F00F000901C9B2024B1954F4E700BFB7
:10056C0000ED00E014ED00E0002807DB00F01F02B6
:10057C00400901239340024A42F82030704700BFE3
:10058C0000E100E00138B0F1807F0BD24FF0E023A6
:10059C005861054AF02182F8231000209861072247
:1005AC001A6170470120704700ED00E070B582B011
:1005BC000024A446A6E0804DAA4210D007D97F4D56
:1005CC00AA420CD005F58035AA4208D013E0A5F557
:1005DC008015AA4203D005F57025AA4207D18A6876
:1005EC00002A58D0012A51D04361082403E0A5F514
:1005FC008015AA42F3D0BEF1FF0F4ED80646BEF1CD
:10060C00FF0F4CD84FEA8C0233680F25954023EA34
:10061C00050304FA02F2134333604B6813F0805F56
:10062C006ED0674B9A6942F001029A619B6903F0A4
:10063C0001030193019B4FEA9C02951C614B53F8FB
:10064C0025600CF003039D000F23AB4026EA030644
:10065C005D4B984229D003F58063984200F08E8060
:10066C0003F58063984200F08B8003F58063984219
:10067C0019D004231AE0CC68BDE7CC680434BAE77F
:10068C00CC680834B7E7CC680C34B4E703610824B1
:10069C00B1E70024AFE70424ADE7061DAFE7ACF1EA
:1006AC0008029200B0E7032300E00023AB40334381
:1006BC000232444D45F822304B6813F4801F61D050
:1006CC00424A936843EA0E0393604B6813F4001F8D
:1006DC005ED03E4AD36843EA0E03D3604B6813F4F2
:1006EC00003F5BD0394A536843EA0E0353604B68B2
:1006FC0013F4803F58D0354A136843EA0E03136055
:10070C000CF1010C0A6832FA0CF353D0012303FAF2
:10071C000CF302EA030E33EA0202F1D14A68122A00
:10072C003FF649AF122A3FF666AF01A555F822F005
:10073C00EB050008830600088D0600089F060008DC
:10074C000306000803060008030600080306000859
:10075C000306000803060008030600080306000849
:10076C000306000803060008030600080306000839
:10077C00030600088706000893060008012395E786
:10078C00022393E7114A936823EA0E0393609CE7D4
:10079C000E4AD36823EA0E03D3609FE70B4A5368D3
:1007AC0023EA0E035360A2E7084A136823EA0E03F8
:1007BC001360A5E702B070BD0000221000003110DC
:1007CC0000100240000001400008014000040140FC
:1007DC007047000008B5054B5B69034200D108BDAA
:1007EC00024B5861FFF7F4FFF9E700BF000401402A
:1007FC0082B0084B1B68084AA2FB03235B0A00FB70
:10080C0003F3019300BF019B5A1E0192002BF9D1F7
:10081C0002B0704700000020D34D6210002800F099
:10082C00F18170B582B00446036813F0010F2CD02F
:10083C00994B5B6803F00C03042B1DD0964B5B6843
:10084C0003F00C03082B12D06368B3F5803F41D042
:10085C00002B55D103F1804303F504331A6822F4BD
:10086C0080321A601A6822F480221A6037E08A4BB0
:10087C005B6813F4803FE7D0874B1B6813F4003F91
:10088C0003D06368002B00F0BF81236813F0020FC4
:10089C0075D0814B5B6813F00C0F5FD07E4B5B689F
:1008AC0003F00C03082B54D02369002B00F08A8032
:1008BC007A4B01221A60FFF707FE0546764B1B6840
:1008CC0013F0020F75D1FFF7FFFD401B0228F5D97D
:1008DC0003209EE1704A136843F48033136063680D
:1008EC0043B3FFF7F1FD05466B4B1B6813F4003F58
:1008FC00CBD1FFF7E9FD401B6428F5D9032088E133
:10090C00B3F5A02F09D0644B1A6822F480321A6018
:10091C001A6822F480221A60E1E703F18043A3F500
:10092C003C331A6842F480221A601A6842F480320E
:10093C001A60D4E7FFF7C8FD0546574B1B6813F444
:10094C00003FA2D0FFF7C0FD401B6428F5D903205F
:10095C005FE1514B5B6813F4803FA5D14E4B1B6894
:10096C0013F0020F03D02369012B40F04F814A4A48
:10097C00136823F0F803616943EAC1031360236829
:10098C0013F0080F33D0A369002B5CD0434B01222A
:10099C00C3F88024FFF798FD05463F4B5B6A13F0C4
:1009AC00020F21D1FFF790FD401B0228F5D903203F
:1009BC002FE1394A136823F0F803616943EAC10354
:1009CC001360DCE7354B00221A60FFF77DFD05460E
:1009DC00314B1B6813F0020FD1D0FFF775FD401B94
:1009EC000228F5D9032014E10120FFF701FF236849
:1009FC0013F0040F00F09680274BDB6913F0805F37
:100A0C0034D1254BDA6942F08052DA61DB6903F0AC
:100A1C0080530193019B0125214B1B6813F4807FAC
:100A2C0026D0E368012B3DD0002B53D103F180433A
:100A3C0003F504331A6A22F001021A621A6A22F0D0
:100A4C0004021A6233E0154B0022C3F88024FFF72E
:100A5C003BFD0546104B5B6A13F0020FC7D0FFF746
:100A6C0033FD401B0228F5D90320D2E00025D3E743
:100A7C000B4A136843F480731360FFF725FD064699
:100A8C00074B1B6813F4807FCBD1FFF71DFD801B38
:100A9C006428F5D90320BCE000100240000042425B
:100AAC00007000405F4A136A43F001031362E3686D
:100ABC0033B3FFF709FD06465A4B1B6A13F0020FBE
:100ACC002FD1FFF701FD801B41F288339842F3D9F7
:100ADC0003209EE0052B09D0524B1A6A22F001022A
:100AEC001A621A6A22F004021A62E0E74D4B1A6A83
:100AFC0042F004021A621A6A42F001021A62D6E744
:100B0C00FFF7E2FC0646474B1B6A13F0020F08D0B6
:100B1C00FFF7DAFC801B41F288339842F3D90320AB
:100B2C0077E0E5B9E369002B72D03E4A526802F0D7
:100B3C000C02082A56D0022B17D03B4B00221A6607
:100B4C00FFF7C2FC0446374B1B6813F0007F47D0FD
:100B5C00FFF7BAFC001B0228F5D9032059E0314AF3
:100B6C00D36923F08053D361DCE72F4B00221A6644
:100B7C00FFF7AAFC05462B4B1B6813F0007F06D031
:100B8C00FFF7A2FC401B0228F5D9032041E0236AA1
:100B9C00B3F5803F1AD023494B6823F47413226AAF
:100BAC00606A024313434B601F4B01221A66FFF726
:100BBC008BFC04461B4B1B6813F0007F0ED1FFF718
:100BCC0083FC001B0228F5D9032022E0154A536848
:100BDC0023F40033A1680B435360DCE7002018E0DA
:100BEC00002016E0012B16D00E4B5B6803F480310D
:100BFC00226A914211D103F47013626A93420ED1AE
:100C0C00002006E001207047012002E0012000E0F6
:100C1C00002002B070BD0120FBE70120F9E70120A4
:100C2C00F7E700BF00100240000042420F4B5B6828
:100C3C0003F00C02082A01D00D487047C3F383421D
:100C4C000C49885C13F4803F0BD0084B5B68C3F3F2
:100C5C004043094AD35C064A02FB00F0B0FBF3F0B8
:100C6C007047064B03FB00F0704700BF00100240BA
:100C7C0000127A0098120008A812000800093D0022
:100C8C00002800F0A08070B50D460446524B1B683E
:100C9C0003F007038B420BD24F4A136823F0070370
:100CAC000B431360136803F007038B4240F08D80F5
:100CBC00236813F0020F17D013F0040F04D0474A27
:100CCC00536843F4E0635360236813F0080F04D0B7
:100CDC00424A536843F460535360404A536823F0CC
:100CEC00F003A1680B435360236813F0010F31D05C
:100CFC006368012B20D0022B25D0384A126812F0E1
:100D0C00020F64D035494A6822F0030213434B604A
:100D1C00FFF7DAFB0646314B5B6803F00C036268A5
:100D2C00B3EB820F16D0FFF7CFFB801B41F2883359
:100D3C009842F0D9032045E0284A126812F4003F8B
:100D4C00E0D101203EE0254A126812F0007FD9D193
:100D5C00012037E0204B1B6803F00703AB420AD994
:100D6C001D4A136823F007032B431360136803F029
:100D7C000703AB422DD1236813F0040F06D0174A9A
:100D8C00536823F4E063E1680B435360236813F06A
:100D9C00080F07D0114A536823F46053216943EAC2
:100DAC00C1035360FFF742FF0C4B5B68C3F30313A3
:100DBC000B4AD35CD8400B4B18600B4B1868FFF7F1
:100DCC003FFB002070BD012070470120FAE7012095
:100DDC00F8E70120F6E700BF0020024000100240B7
:100DEC0088120008000000200800002010B4036ADC
:100DFC00046A24F001040462846924F0F00C4CEAC7
:100E0C00021223F00A030B438261036210BC704789
:100E1C0010B4036A046A24F010040462846924F494
:100E2C00704C4CEA023223F0A00343EA01138261B6
:100E3C00036210BC7047836823F070030B4343F0CC
:100E4C00070383607047000003681B4A90420AD076
:100E5C00B0F1804F07D0A2F59432904203D002F546
:100E6C008062904203D123F070034A681343124A04
:100E7C0090420AD0B0F1804F07D0A2F59432904244
:100E8C0003D002F58062904203D123F44073CA6808
:100E9C00134323F080034A69134303608B68C362D6
:100EAC000B688362044B984202D001234361704764
:100EBC000B690363F9E700BF002C014040B310B588
:100ECC00044690F83D30F3B1022384F83D302146BE
:100EDC0051F8040BFFF7B8FF012384F8463084F86F
:100EEC003E3084F83F3084F8403084F8413084F848
:100EFC00423084F8433084F8443084F8453084F828
:100F0C003D30002010BD80F83C30FFF739FADBE7AC
:100F1C000120704710B4846824F47F4C42EA032209
:100F2C000A4342EA0C02826010BC704790F83C30D5
:100F3C00012B78D010B50446012380F83C300223F5
:100F4C0080F83D300268936823F47F4323F07703E5
:100F5C0093600B68602B4CD029D8402B54D00CD903
:100F6C00502B22D1CA6849680068FFF73FFF502117
:100F7C002068FFF760FF002005E0202B0DD009D979
:100F8C00302B0AD00120012384F83D30002384F853
:100F9C003C3010BD0BB1102B05D119462068FFF762
:100FAC004AFF0020EFE70120EDE70120EBE7B3F566
:100FBC00805F34D0B3F5005F0CD1CB684A68896888
:100FCC000068FFF7A7FF2268936843F4804393609F
:100FDC000020D8E7702B24D1CB684A688968006858
:100FEC00FFF798FF2268936843F077039360002023
:100FFC00C9E7CA6849680068FFF70AFF60212068E2
:10100C00FFF719FF0020BEE7CA6849680068FFF7C0
:10101C00EDFE40212068FFF70EFF0020B3E7002013
:10102C00B1E70120AFE702207047000090F83C3098
:10103C00012B2CD010B4012380F83C30022380F813
:10104C003D3003685A689C6822F0700C0A6842EACA
:10105C000C025A6003680F4A93420AD0B3F1804FD6
:10106C0007D0A2F59432934203D002F580629342EA
:10107C0004D124F080044A6814439C60012380F856
:10108C003D30002380F83C30184610BC70470220DD
:10109C00704700BF002C014070B50D4E0D4D761BF6
:1010AC00B61006D0002455F8043B01349847A642EC
:1010BC00F9D1094E094D00F0D5F8761BB61006D0C3
:1010CC00002455F8043B01349847A642F9D170BD71
:1010DC00B0120008B0120008B8120008B0120008D4
:1010EC00830730B548D0541E002A3FD00346CAB2FD
:1010FC0001E0013C3AD303F8012B9D07F9D1032CF5
:10110C002DD9CDB245EA05250F2C45EA054536D932
:10111C00A4F1100222F00F0C03F1200EE6444FEA6A
:10112C00121C03F1100242E9045542E90255103237
:10113C007245F8D10CF1010214F00C0F03EB021202
:10114C0004F00F0C13D0ACF1040323F003030433AD
:10115C00134442F8045B9342FBD10CF003042CB112
:10116C00CAB21C4403F8012B9C42FBD130BD64462F
:10117C001346002CF4D1F9E703461446BFE71A4690
:10118C00A446E0E7024B13B1024800F005B87047E3
:10119C0000000000B1110008002301461A46184651
:1011AC0000F01AB838B5084B084D5B1B9C1007D0E3
:1011BC00043B1D44013C55F804399847002CF9D1E7
:1011CC00BDE8384000F054B8BC120008B812000852
:1011DC00704700BF704700BF2DE9F047DFF87CA0D7
:1011EC000646DAF8000098460F469146FFF7F0FFE6
:1011FC001B4B1B68D3F8484124B365681F2D26DCB4
:10120C005EB96B1C0235DAF80000636044F8257097
:10121C00FFF7E0FF0020BDE8F087012304EB850118
:10122C00C1F88890D4F88821AB401A43022EC4F838
:10123C008821C1F80881E4D1D4F88C211343C4F877
:10124C008C31DEE703F5A674C3F84841D5E7DAF82C
:10125C000000FFF7BFFF4FF0FF30DCE73804002041
:10126C00AC120008F8B500BFF8BC08BC9E4670472D
:0C127C00F8B500BFF8BC08BC9E467047E7
:10128800000000000000000001020304060708092E
:1012980002030405060708090A0B0C0D0E0F1010AF
:0812A80001020000100000200B
:0812B000911100083101000852
:0412B8000D0100081C
:1012BC000024F400010000001000000000000000F9
:1012CC0000000000FC02002064030020CC0300207E
:1012DC000000000000000000000000000000000002
:1012EC0000000000000000000000000000000000F2
:1012FC0000000000000000000000000000000000E2
:10130C0000000000000000000000000000000000D1
:10131C0000000000000000000000000000000000C1
:10132C0000000000000000000000000000000000B1
:10133C0000000000000000000000000000000000A1
:10134C000000000000000000000000000000000091
:10135C000000000000000000000000000000000081
:10136C000000000000000000010000000000000070
:10137C000E33CDAB34126DE6ECDE05000B00000035
:10138C000000000000000000000000000000000051
:10139C000000000000000000000000000000000041
:1013AC000000000000000000000000000000000031
:1013BC000000000000000000000000000000000021
:0C16EC000000000000000000A40400202A
:0400000508000401EA
:00000001FF
