:020000040800F2
:1000000000500020D1050008B5030008B703000820
:10001000B9030008BB030008BD030008000000008E
:10002000000000000000000000000000BF03000806
:10003000C103000800000000C3030008C503000856
:100040001906000819060008190600081906000814
:100050001906000819060008CD0300081906000853
:100060001906000819060008D70300081906000839
:1000700019060008190600081906000819060008E4
:1000800019060008190600081906000819060008D4
:10009000190600081906000819060008E1030008FF
:1000A00019060008190600081906000819060008B4
:1000B00019060008190600081906000819060008A4
:1000C0001906000819060008190600081906000894
:1000D0001906000819060008190600081906000884
:1000E000190600081906000819060008000000009B
:1000F0000000000000000000000000000000000000
:0C01000000000000000000005FF808F1A3
:10010C0010B5054C237833B9044B13B10448AFF345
:10011C0000800123237010BD4C080020000000005B
:10012C001827000808B5034B1BB103490348AFF36C
:10013C00008008BD000000005008002018270008AF
:10014C0030B589B0002404940594069407942C4B84
:10015C009A6942F020029A619A6902F02002019297
:10016C00019A9A6942F004029A619A6902F00402B7
:10017C000292029A9A6942F008029A619B6903F012
:10018C0008030393039BF02304931E4D059504A9C8
:10019C001D4800F0F3FA01230493059506941B4DBA
:1001AC0004A9284600F0EAFA022304930593079366
:1001BC0004A9284600F0E2FAC02304931223059305
:1001CC000323079304A9284600F0D8FA22462146B7
:1001DC00062000F079FA062000F0AEFA22462146FD
:1001EC000A2000F071FA0A2000F0A6FA22462146F5
:1001FC00172000F069FA172000F09EFA09B030BD04
:10020C00001002400000111000080140000C0140D9
:10021C0072B6FEE700B591B02822002106A801F0C5
:10022C00F5F90023019302930393049305930122A0
:10023C0006924FF4803307930A9202220D920E938A
:10024C004FF4E0130F9306A800F0D0FB80B90F23F6
:10025C00019302210291002303934FF480620492D4
:10026C00059301A800F0F4FD20B911B05DF804FB72
:10027C00FFF7CEFFFFF7CCFF08B500F0EFF9FFF763
:10028C00C9FFFFF75DFF00F0D7F800F045F9024811
:10029C0000F004F8FEE700BFB808002008B5054BD5
:1002AC001860054B1868002302221946806801F07B
:1002BC00FFF908BD680800200C00002010B50138BB
:1002CC0001280AD814464FF0FF3392B20748006851
:1002DC0001F0AEF840B9204610BD01F06DF90923CC
:1002EC0003604FF0FF30F7E70520F5E768080020C2
:1002FC00022801D80020704708B501F05DF90923E8
:10030C0003604FF0FF3008BD08B501F055F9092323
:10031C0003604FF0FF3008BD08B548B94FF0FF330C
:10032C0001220848006801F0E2F840B9012008BD3C
:10033C0001F042F9092303604FF0FF30F7E7052085
:10034C00F5E700BF6808002008B5022804D84FF470
:10035C0000534B60002008BD01F02EF90923036007
:10036C00F8E7000082B00E4B9A6942F001029A61E4
:10037C009A6902F001020092009ADA6942F0805206
:10038C00DA61DB6903F080530193019B054A5368E2
:10039C0023F0E06343F00073536002B0704700BF7A
:1003AC000010024000000140FEE7FEE7FEE7FEE71A
:1003BC00FEE770477047704708B500F061F908BD5B
:1003CC0008B5012000F0EEFA08BD08B5102000F0C9
:1003DC00E9FA08BD08B5202000F0E4FA402000F04E
:1003EC00E1FA802000F0DEFA08BD000010B50346EB
:1003FC000C4A0D490D48006840B10C480068034494
:10040C00521A934206D8094A136010BD0748084C8B
:10041C000460F2E701F0D0F80C2303604FF0FF30DA
:10042C00F3E700BF00500020000400006C0800201F
:10043C00500900207047000000B587B000230293DC
:10044C000393049305930093019315484FF0804256
:10045C000260436083604FF6FF72C2600361836188
:10046C0000F03AFE90B94FF48053029302A90C4865
:10047C0000F06AFE68B900230093019369460848AE
:10048C0000F0E2FE40B907B05DF804FBFFF7C0FED8
:10049C00E9E7FFF7BDFEEEE7FFF7BAFEF3E700BFB3
:1004AC007008002000B587B00023029303930493D7
:1004BC0005930368B3F1804F02D007B05DF804FBDD
:1004CC0003F50433DA6942F00102DA61DA6902F009
:1004DC0001020092009A9A6942F008029A619B69A3
:1004EC0003F008030193019B4FF440630293022332
:1004FC000393059302A9064800F040F9054A536896
:10050C0023F4407343F0E06343F400735360D4E787
:10051C00000C01400000014008B50A480A4B03607A
:10052C004FF4E133436000238360C36003610C220A
:10053C0042618361C36100F04BFF00B908BDFFF756
:10054C0067FEFBE7B80800200038014010B586B004
:10055C00002302930393049305930268174B9A426A
:10056C0001D006B010BD03F558439A6942F480429D
:10057C009A619A6902F480420092009A9A6942F058
:10058C0004029A619B6903F004030193019B4FF4ED
:10059C00007302930223039303230593084C02A9CF
:1005AC00204600F0EBF84FF4806302930023039392
:1005BC00049302A9204600F0E1F8D2E7003801408C
:1005CC0000080140FFF736FF0B480C490C4A00238A
:1005DC0002E0D458C4500433C4188C42F9D3094AED
:1005EC00094C002301E013600432A242FBD300F05B
:1005FC00E9FFFFF741FE7047000000204C08002087
:10060C006C2700084C0800204C090020FEE7000075
:10061C0010B504460E4B18784FF47A73B3FBF0F315
:10062C000C4A1068B0FBF3F000F094F868B90F2C8A
:10063C0001D901200AE0002221464FF0FF3000F0E2
:10064C0043F8054B1C60002000E0012010BD00BFEA
:10065C0004000020000000200800002008B5074A14
:10066C00136843F010031360032000F01BF80F20F5
:10067C00FFF7CEFFFFF776FE002008BD00200240FA
:10068C00034A1168034B1B780B441360704700BF7F
:10069C000009002004000020014B1868704700BFBF
:1006AC0000090020074AD36823F4E0631B041B0CE9
:1006BC00000200F4E060034343F0BF6343F40033F3
:1006CC00D360704700ED00E000B5194BDB68C3F355
:1006DC000223C3F1070CBCF1040F28BF4FF0040C2C
:1006EC0003F1040EBEF1060F18D9033B4FF0FF3E89
:1006FC000EFA0CFC21EA0C0199400EFA03F322EAE3
:10070C000303194300280BDB0901C9B200F1604057
:10071C0000F5614080F800135DF804FB0023E5E769
:10072C0000F00F000901C9B2024B1954F4E700BFE5
:10073C0000ED00E014ED00E0002807DB00F01F02E4
:10074C00400901239340024A42F82030704700BF11
:10075C0000E100E00138B0F1807F0BD24FF0E023D4
:10076C005861054AF02182F8231000209861072275
:10077C001A6170470120704700ED00E070B582B03F
:10078C000024A446A6E0804DAA4210D007D97F4D84
:10079C00AA420CD005F58035AA4208D013E0A5F585
:1007AC008015AA4203D005F57025AA4207D18A68A4
:1007BC00002A58D0012A51D04361082403E0A5F542
:1007CC008015AA42F3D0BEF1FF0F4ED80646BEF1FB
:1007DC00FF0F4CD84FEA8C0233680F25954023EA63
:1007EC00050304FA02F2134333604B6813F0805F85
:1007FC006ED0674B9A6942F001029A619B6903F0D3
:10080C0001030193019B4FEA9C02951C614B53F829
:10081C0025600CF003039D000F23AB4026EA030672
:10082C005D4B984229D003F58063984200F08E808E
:10083C0003F58063984200F08B8003F58063984247
:10084C0019D004231AE0CC68BDE7CC680434BAE7AD
:10085C00CC680834B7E7CC680C34B4E703610824DF
:10086C00B1E70024AFE70424ADE7061DAFE7ACF118
:10087C0008029200B0E7032300E00023AB403343AF
:10088C000232444D45F822304B6813F4801F61D07E
:10089C00424A936843EA0E0393604B6813F4001FBB
:1008AC005ED03E4AD36843EA0E03D3604B6813F420
:1008BC00003F5BD0394A536843EA0E0353604B68E0
:1008CC0013F4803F58D0354A136843EA0E03136083
:1008DC000CF1010C0A6832FA0CF353D0012303FA21
:1008EC000CF302EA030E33EA0202F1D14A68122A2F
:1008FC003FF649AF122A3FF666AF01A555F822F034
:10090C00BB070008530800085D0800086F080008C2
:10091C00D3070008D3070008D3070008D307000843
:10092C00D3070008D3070008D3070008D307000833
:10093C00D3070008D3070008D3070008D307000823
:10094C00D30700085708000863080008012395E73F
:10095C00022393E7114A936823EA0E0393609CE702
:10096C000E4AD36823EA0E03D3609FE70B4A536801
:10097C0023EA0E035360A2E7084A136823EA0E0326
:10098C001360A5E702B070BD00002210000031100A
:10099C00001002400000014000080140000401402A
:1009AC007047000008B5054B5B69034200D108BDD8
:1009BC00024B5861FFF7F4FFF9E700BF0004014058
:1009CC0082B0084B1B68084AA2FB03235B0A00FB9E
:1009DC0003F3019300BF019B5A1E0192002BF9D126
:1009EC0002B0704700000020D34D6210002800F0C8
:1009FC00F18170B582B00446036813F0010F2CD05E
:100A0C00994B5B6803F00C03042B1DD0964B5B6871
:100A1C0003F00C03082B12D06368B3F5803F41D070
:100A2C00002B55D103F1804303F504331A6822F4EB
:100A3C0080321A601A6822F480221A6037E08A4BDE
:100A4C005B6813F4803FE7D0874B1B6813F4003FBF
:100A5C0003D06368002B00F0BF81236813F0020FF2
:100A6C0075D0814B5B6813F00C0F5FD07E4B5B68CD
:100A7C0003F00C03082B54D02369002B00F08A8060
:100A8C007A4B01221A60FFF707FE0546764B1B686E
:100A9C0013F0020F75D1FFF7FFFD401B0228F5D9AB
:100AAC0003209EE1704A136843F48033136063683B
:100ABC0043B3FFF7F1FD05466B4B1B6813F4003F86
:100ACC00CBD1FFF7E9FD401B6428F5D9032088E161
:100ADC00B3F5A02F09D0644B1A6822F480321A6047
:100AEC001A6822F480221A60E1E703F18043A3F52F
:100AFC003C331A6842F480221A601A6842F480323D
:100B0C001A60D4E7FFF7C8FD0546574B1B6813F472
:100B1C00003FA2D0FFF7C0FD401B6428F5D903208D
:100B2C005FE1514B5B6813F4803FA5D14E4B1B68C2
:100B3C0013F0020F03D02369012B40F04F814A4A76
:100B4C00136823F0F803616943EAC1031360236857
:100B5C0013F0080F33D0A369002B5CD0434B012258
:100B6C00C3F88024FFF798FD05463F4B5B6A13F0F2
:100B7C00020F21D1FFF790FD401B0228F5D903206D
:100B8C002FE1394A136823F0F803616943EAC10382
:100B9C001360DCE7354B00221A60FFF77DFD05463C
:100BAC00314B1B6813F0020FD1D0FFF775FD401BC2
:100BBC000228F5D9032014E10120FFF701FF236877
:100BCC0013F0040F00F09680274BDB6913F0805F65
:100BDC0034D1254BDA6942F08052DA61DB6903F0DB
:100BEC0080530193019B0125214B1B6813F4807FDB
:100BFC0026D0E368012B3DD0002B53D103F1804369
:100C0C0003F504331A6A22F001021A621A6A22F0FE
:100C1C0004021A6233E0154B0022C3F88024FFF75C
:100C2C003BFD0546104B5B6A13F0020FC7D0FFF774
:100C3C0033FD401B0228F5D90320D2E00025D3E771
:100C4C000B4A136843F480731360FFF725FD0646C7
:100C5C00074B1B6813F4807FCBD1FFF71DFD801B66
:100C6C006428F5D90320BCE0001002400000424289
:100C7C00007000405F4A136A43F001031362E3689B
:100C8C0033B3FFF709FD06465A4B1B6A13F0020FEC
:100C9C002FD1FFF701FD801B41F288339842F3D925
:100CAC0003209EE0052B09D0524B1A6A22F0010258
:100CBC001A621A6A22F004021A62E0E74D4B1A6AB1
:100CCC0042F004021A621A6A42F001021A62D6E772
:100CDC00FFF7E2FC0646474B1B6A13F0020F08D0E5
:100CEC00FFF7DAFC801B41F288339842F3D90320DA
:100CFC0077E0E5B9E369002B72D03E4A526802F006
:100D0C000C02082A56D0022B17D03B4B00221A6635
:100D1C00FFF7C2FC0446374B1B6813F0007F47D02B
:100D2C00FFF7BAFC001B0228F5D9032059E0314A21
:100D3C00D36923F08053D361DCE72F4B00221A6672
:100D4C00FFF7AAFC05462B4B1B6813F0007F06D05F
:100D5C00FFF7A2FC401B0228F5D9032041E0236ACF
:100D6C00B3F5803F1AD023494B6823F47413226ADD
:100D7C00606A024313434B601F4B01221A66FFF754
:100D8C008BFC04461B4B1B6813F0007F0ED1FFF746
:100D9C0083FC001B0228F5D9032022E0154A536876
:100DAC0023F40033A1680B435360DCE7002018E008
:100DBC00002016E0012B16D00E4B5B6803F480313B
:100DCC00226A914211D103F47013626A93420ED1DC
:100DDC00002006E001207047012002E0012000E025
:100DEC00002002B070BD0120FBE70120F9E70120D3
:100DFC00F7E700BF00100240000042420F4B5B6857
:100E0C0003F00C02082A01D00D487047C3F383424B
:100E1C000C49885C13F4803F0BD0084B5B68C3F320
:100E2C004043094AD35C064A02FB00F0B0FBF3F0E6
:100E3C007047064B03FB00F0704700BF00100240E8
:100E4C0000127A00482700085827000800093D00C6
:100E5C00002800F0A08070B50D460446524B1B686C
:100E6C0003F007038B420BD24F4A136823F007039E
:100E7C000B431360136803F007038B4240F08D8023
:100E8C00236813F0020F17D013F0040F04D0474A55
:100E9C00536843F4E0635360236813F0080F04D0E5
:100EAC00424A536843F460535360404A536823F0FA
:100EBC00F003A1680B435360236813F0010F31D08A
:100ECC006368012B20D0022B25D0384A126812F00F
:100EDC00020F64D035494A6822F0030213434B6079
:100EEC00FFF7DAFB0646314B5B6803F00C036268D4
:100EFC00B3EB820F16D0FFF7CFFB801B41F2883388
:100F0C009842F0D9032045E0284A126812F4003FB9
:100F1C00E0D101203EE0254A126812F0007FD9D1C1
:100F2C00012037E0204B1B6803F00703AB420AD9C2
:100F3C001D4A136823F007032B431360136803F057
:100F4C000703AB422DD1236813F0040F06D0174AC8
:100F5C00536823F4E063E1680B435360236813F098
:100F6C00080F07D0114A536823F46053216943EAF0
:100F7C00C1035360FFF742FF0C4B5B68C3F30313D1
:100F8C000B4AD35CD8400B4B18600B4B1868FFF71F
:100F9C003FFB002070BD012070470120FAE70120C3
:100FAC00F8E70120F6E700BF0020024000100240E5
:100FBC00302700080000002008000020014B1868B2
:100FCC00704700BF0000002008B5FFF7F7FF044B87
:100FDC005B68C3F30223034AD35CD84008BD00BF4F
:100FEC00001002404027000808B5FFF7E7FF044B4C
:100FFC005B68C3F3C223034AD35CD84008BD00BF6F
:10100C00001002404027000810B4036A046A24F060
:10101C0001040462846924F0F00C4CEA021223F0FF
:10102C000A030B438261036210BC704710B4036A5D
:10103C00046A24F010040462846924F4704C4CEAB1
:10104C00023223F0A00343EA01138261036210BC55
:10105C007047836823F070030B4343F007038360EE
:10106C007047000003681B4A90420AD0B0F1804FD1
:10107C0007D0A2F59432904203D002F580629042E0
:10108C0003D123F070034A681343124A90420AD0EA
:10109C00B0F1804F07D0A2F59432904203D002F504
:1010AC008062904203D123F44073CA68134323F047
:1010BC0080034A69134303608B68C3620B688362C5
:1010CC00044B984202D00123436170470B690363C0
:1010DC00F9E700BF002C014040B310B5044690F86E
:1010EC003D30F3B1022384F83D30214651F8040B16
:1010FC00FFF7B8FF012384F8463084F83E3084F8BB
:10110C003F3084F8403084F8413084F8423084F821
:10111C00433084F8443084F8453084F83D30002066
:10112C0010BD80F83C30FFF7BDF9DBE701207047BC
:10113C0010B4846824F47F4C42EA03220A4342EA46
:10114C000C02826010BC704790F83C30012B78D0B8
:10115C0010B50446012380F83C30022380F83D3062
:10116C000268936823F47F4323F0770393600B6842
:10117C00602B4CD029D8402B54D00CD9502B22D1D9
:10118C00CA6849680068FFF73FFF50212068FFF7E5
:10119C0060FF002005E0202B0DD009D9302B0AD0A0
:1011AC000120012384F83D30002384F83C3010BD2D
:1011BC000BB1102B05D119462068FFF74AFF002010
:1011CC00EFE70120EDE70120EBE7B3F5805F34D0CA
:1011DC00B3F5005F0CD1CB684A6889680068FFF7EB
:1011EC00A7FF2268936843F4804393600020D8E7FC
:1011FC00702B24D1CB684A6889680068FFF798FF88
:10120C002268936843F0770393600020C9E7CA68AB
:10121C0049680068FFF70AFF60212068FFF719FF93
:10122C000020BEE7CA6849680068FFF7EDFE402160
:10123C002068FFF70EFF0020B3E70020B1E7012084
:10124C00AFE702207047000090F83C30012B2CD007
:10125C0010B4012380F83C30022380F83D30036841
:10126C005A689C6822F0700C0A6842EA0C025A60B8
:10127C0003680F4A93420AD0B3F1804F07D0A2F50E
:10128C009432934203D002F58062934204D124F04D
:10129C0080044A6814439C60012380F83D3000238D
:1012AC0080F83C30184610BC70470220704700BFD5
:1012BC00002C014010B504460268136923F4405316
:1012CC00C1680B43136183680269134342691A4373
:1012DC000168CB6823F4B05323F00C031343CB60A9
:1012EC000268536923F4407381690B4353610268AC
:1012FC00134B9A4220D0FFF767FE024602EB8202A4
:10130C0002EB820263689B00B2FBF3F20D48A0FB78
:10131C0002314909642303FB11231B013233A0FB67
:10132C0003235B0903F0F00202EB011203F00F033D
:10133C00216813448B6010BDFFF756FE0246DDE7B3
:10134C00003801401F85EB512DE9F84305460F4647
:10135C0016469946DDF820802C68246837EA040389
:10136C000CBF4FF0010C4FF0000CB4452DD1B8F16F
:10137C00FF3FF1D0B8F1000F05D0FFF78DF9A0EBCE
:10138C0009004045E8D92A6802F10C0353E8003FF4
:10139C0023F4D0730C3242E800310029F3D12A68CF
:1013AC0002F1140353E8003F23F00103143242E826
:1013BC0000310029F3D1202385F8413085F84230E3
:1013CC00002385F84030032000E00020BDE8F883BE
:1013DC0060B310B5044690F8413013B3242384F85D
:1013EC0041302268D36823F40053D3602046FFF7C2
:1013FC0061FF2268136923F49043136122685369D7
:10140C0023F02A0353612268D36843F40053D3605A
:10141C0000206064202384F8413084F842306063FB
:10142C0010BD80F84030FFF791F8D7E701207047E6
:10143C002DE9F04182B01E4690F84130DBB2202BF2
:10144C004BD104460D46904600294AD00AB90120DA
:10145C0044E000234364212380F84130FFF71CF95A
:10146C000746A4F82480A4F82680A368B3F5805F0F
:10147C0002D04FF000080FE02369FBB14FF00008D9
:10148C000AE038F8023B2268C3F308035360E28C8D
:10149C0092B2013A92B2E284E38C9BB28BB1009689
:1014AC003B46002280212046FFF74EFFD8B9002D85
:1014BC00E7D015F8012B23685A60E8E7A846002509
:1014CC00EAE700963B46002240212046FFF73CFF0E
:1014DC0058B9202384F8413000E0022002B0BDE866
:1014EC00F0810120FAE70320F8E70320F6E72DE965
:1014FC00F04182B01E4690F84230DBB2202B53D123
:10150C0004460D469046002952D00AB901204CE001
:10151C0000234364222280F842200363FFF7BCF8C7
:10152C000746A4F82C80A4F82E80A368B3F5805F3E
:10153C0002D04FF0000817E0236913B14FF00008F8
:10154C0012E0A84600250FE023685B68C3F308038C
:10155C0028F8023B03E023685B682B700135E28DB1
:10156C0092B2013A92B2E285E38D9BB2BBB1009686
:10157C003B46002220212046FFF7E6FED0B9002D85
:10158C00E2D0A368B3F5805FE5D013B92369002BD3
:10159C00E1D023685B6803F07F032B70DEE7202328
:1015AC0084F84230002000E0022002B0BDE8F08157
:1015BC000120FAE70320F8E7014B1868704700BFD9
:1015CC000C00002070B50D4E0D4D761BB61006D0DC
:1015DC00002455F8043B01349847A642F9D1094E32
:1015EC00094D01F093F8761BB61006D0002455F87F
:1015FC00043B01349847A642F9D170BD602700081E
:10160C00602700086827000860270008830730B5AA
:10161C0048D0541E002A3FD00346CAB201E0013C18
:10162C003AD303F8012B9D07F9D1032C2DD9CDB258
:10163C0045EA05250F2C45EA054536D9A4F11002DB
:10164C0022F00F0C03F1200EE6444FEA121C03F1BA
:10165C00100242E9045542E9025510327245F8D1A4
:10166C000CF1010214F00C0F03EB021204F00F0C3E
:10167C0013D0ACF1040323F003030433134442F8F6
:10168C00045B9342FBD10CF003042CB1CAB21C4492
:10169C0003F8012B9C42FBD130BD64461346002C51
:1016AC00F4D1F9E703461446BFE71A46A446E0E72F
:1016BC002DE9F043694C0E46D4F8008017460446D9
:1016CC001D4683B0B8F1000F03D0D8F83830002B8A
:1016DC0077D0022F05D0012F00F2AC80002DC0F284
:1016EC00A980636EDA0752D52146404600F05AF9BC
:1016FC00216B41B104F14003994202D0404600F005
:10170C007DFA002323630023B4F90CC0A3611CF001
:10171C00800F636064D12CF44A6C2CF0030C022F04
:10172C00A4F80CC06AD001AB214640466A4600F0D2
:10173C0091FBA3891843A081002D2FD0002E2ED011
:10174C00D8F83830002B38D0009BC4E90465AB4284
:10175C00B4F90C3026601CBF43F40063A381012F45
:10176C0004BF43F00103A3819AB213F008032CD0F9
:10177C00D1075DD500216D42A561656EA16015F0A4
:10178C00010527D00025284603B0BDE8F083A389C6
:10179C009B05A9D4A06D00F059FBA5E7009D284638
:1017AC0000F088FB0646002847D0A38943F080034D
:1017BC00A381D8F83830002BC6D1404600F026F96A
:1017CC00C2E7404600F022F983E7A360656E15F08E
:1017DC000105D7D1930524D5284603B0BDE8F08385
:1017EC004046216900F00AFAB4F90CC0022F2CF41F
:1017FC004A6C2CF0030CA4F80CC094D100250021E9
:10180C00012204F1430323602361636E4CF0020C4C
:10181C00D807A4F80CC0A1606261DDD41CF4007F71
:10182C00DAD1A06D00F014FB284603B0BDE8F083BC
:10183C00A560CBE74FF0FF35CEE7DDF80090A9456A
:10184C0004D0484600F036FB064620B94FF0FF3571
:10185C00B4F90CC0D3E74D46A7E700BF0C0000203D
:10186C00024B13B1024800F005B8704700000000AD
:10187C003D1B0008002301461A46184600F048BEDE
:10188C00B1F90C20F8B50C461107074643D4636830
:10189C0042F40062002BA2815BDDA56A002D56D0BC
:1018AC0000233E683B6093B212F4805255D1012361
:1018BC003846E169A847421C65D0A389A56A5B0735
:1018CC0005D56368C01A236B0BB1E36BC01A0246D3
:1018DC00E16900233846A847411C40D13B68002BE6
:1018EC003DD01D2B01D0162B54D10022A38923F4FB
:1018FC000063A3812369C4E90032216B3E6031B3DC
:10190C0004F14003994202D0384600F077F90023E5
:10191C0018462363F8BD2669CEB193B29A0718BF57
:10192C000023256808BF63692660AD1BA3600CE02B
:10193C002B463246D4F824C03846E169E047B0F172
:10194C00000CA5EB0C05664416DD002DF0DC002028
:10195C00F8BDE36B002BA0DCF9E7206DAFE70022AC
:10196C00B4F90C30626023F400632269A381DB04B8
:10197C002260C2D52065C0E7A3894FF0FF3043F049
:10198C004003A381F8BD3B68002B96D01D2B06D0DD
:10199C00162B04D0A38943F04003A381F8BD00208B
:1019AC003E60F8BD38B505460C4608B1836BA3B153
:1019BC00B4F90C00B8B1636EDB0701D4810515D501
:1019CC0028462146FFF75CFF636E0546DA0702D412
:1019DC00A3899B050ED5284638BD00F017F8B4F93D
:1019EC000C000028E7D10546284638BDA06D00F054
:1019FC002DFAE5E7A06D00F02BFA284638BD00BFA4
:101A0C00014900F0FBB900BFCD2500082DE9F047D6
:101A1C008246394800F01AFADAF83840002C66D1C0
:101A2C00042303223549DAF80450CAF83C10DFF8D5
:101A3C00D090DFF8D080344F344E0AF53B71CAE9B0
:101A4C00B921CAF8E0422146EB600822C5E90044FE
:101A5C00C5E904446C66AC60AC6105F15C00FFF751
:101A6C00D5FDC5E90759C5E90987EE6205F15800AE
:101A7C0000F0E8F9DAF80850254B2146EB60082213
:101A8C00C5E90044C5E904446C66AC60AC6105F181
:101A9C005C00FFF7BBFDC5E90759C5E90987EE6294
:101AAC0005F1580000F0CEF9DAF80C50194B21462C
:101ABC00EB600822C5E90044C5E904446C66AC60DF
:101ACC00AC6105F15C00FFF7A1FD05F15800C5E91B
:101ADC000759C5E90A76C5F8248000F0B3F901234B
:101AEC000548CAF83830BDE8F04700F0B1B90248F3
:101AFC00BDE8F04700F0ACB9100900200D1A000841
:101B0C006524000889240008C9240008E924000879
:101B1C000900010012000200014800F097B900BF53
:101B2C000C090020014800F093B900BF0C090020FB
:101B3C0038B5084B084D5B1B9C1007D0043B1D446B
:101B4C00013C55F804399847002CF9D1BDE83840D0
:101B5C0000F0E2BD6C27000868270008F8B50C46B9
:101B6C00234F064600F05AFCBB685D68C4F57E63E3
:101B7C0025F003050F332B4423F47F6323F00F036D
:101B8C00A3F58054B4F5805F07DB0021304600F0EC
:101B9C0051FCBB682B44984204D0304600F044FC06
:101BAC000020F8BD3046614200F044FC01300DD0FD
:101BBC00104ABB682D1B45F001055D60136830466B
:101BCC001B1B136000F030FC0120F8BD00213046D7
:101BDC0000F030FCBA68831A0F2BDEDD43F00103F2
:101BEC005360054B03491B68C01A0860D5E700BF5A
:101BFC003C040020140900204408002000295ED079
:101C0C00F8B50C46064600F009FC54F8042C784F45
:101C1C00A4F1080522F001016818D7F808C0436840
:101C2C00844523F0030300F08780D207436034D44B
:101C3C0054F8082C07F10804AD1A1144AA68A24202
:101C4C0068D000EB030CDCF804E0D5F80CC01EF0F7
:101C5C00010FC2F80CC0CCF8082000F0918041F0C4
:101C6C0001036B600160B1F5007F31D24A09CB08EA
:101C7C00012191407A6801331143796007EBC3026B
:101C8C0057F83310083AC5E9021247F83350CD60C3
:101C9C003046BDE8F84000F0C7BBC2185268D20706
:101CAC000ED4194407F108048368A34270D0C268AB
:101CBC00DA60936041F001036B606950D3E77047C1
:101CCC0041F00103B1F5007F44F8043C0160CDD331
:101CDC00B1F5206F4FEA512347D28B0903F139003C
:101CEC0003F13802C300F818FB580838984258D052
:101CFC005A6822F003028A4202D99B689842F7D1B3
:101D0C00D868C5E9023085603046DD60BDE8F84032
:101D1C0000F08ABBC2185268D20763D40B44D0E9D6
:101D2C000212CA60916043F001026A603046EB50C7
:101D3C00BDE8F84000F078BB0B44D10707D454F849
:101D4C00082CAD1A1344D5E90212CA60916043F015
:101D5C0001026A60274ABD6012689A4298D8264BE5
:101D6C0030461968FFF7FAFE92E7142B0AD9542B68
:101D7C001FD80B0B03F16F0003F16E02C300B2E727
:101D8C00194491E703F15C0003F15B02C300AAE77D
:101D9C0041F00103C7E90455C5E902446B60695081
:101DAC0076E70121921001FA02F279680A437A600F
:101DBC00A7E7B3F5AA7F06D8CB0B03F1780003F1A4
:101DCC007702C3008FE740F25452934206D88B0C33
:101DDC0003F17D0003F17C02C30084E74FF47E73B2
:101DEC007E2280E741F001036B60016050E700BF89
:101DFC003C04002048080020440900202DE9F84349
:101E0C004FF000090746884600F53876D6E90154AC
:101E1C00013D10D4A389013D012B08D9B4F90E3032
:101E2C00013304D021463846C04749EA00096B1CEF
:101E3C0004F16804EED13668002EE7D14846BDE8BF
:101E4C00F88300BF704700BF704700BF704700BFEA
:101E5C00704700BF70B50C46B1F90E10154600293D
:101E6C001E4696B014DB6A4600F010FC00280FDB0F
:101E7C00019A4FF4806302F47042A2F50052B2FA58
:101E8C0082F24FF40060520932602B6016B070BDC4
:101E9C000023B4F90C10336011F0800004D0402200
:101EAC0018462A6016B070BD4FF480632B6016B0D4
:101EBC0070BD00BF024B0146186800F003B800BFAC
:101ECC000C0000202DE9F04F01F10B05162D0646F4
:101EDC0083B025D8102900F2B88000F09FFA1025A5
:101EEC0018224FF0020CB54F3A445368A2F1080186
:101EFC008B4200F0B7805A68D96822F003021A446A
:101F0C009C683046E1608C60516803F1080441F034
:101F1C000101516000F088FA204603B0BDE8F08F53
:101F2C0035F0070500F19180A94200F28E8000F097
:101F3C0075FAB5F5FC7FC0F094816B0A00F08C80CB
:101F4C00042B00F26A81AB0903F1390C03F138045C
:101F5C004FEACC00994F384443680838984206D170
:101F6C000CE0002980F22681DB68984206D05A6882
:101F7C0022F00302511B0F29F3DDA4463C69DFF864
:101F8C0040E274457AD0626822F00302531B0F2B97
:101F9C0000F37681002BC7E904EE80F26781B2F57D
:101FAC00007F80F019810121D30852090B44914024
:101FBC007A6857F833000A4307EBC3010839A0606D
:101FCC00E1607A6047F83340C46001214FEAAC030A
:101FDC009940914259D8114206D12CF0030C49007A
:101FEC0011420CF1040CFAD007EBCC0948466446BC
:101FFC00D0F80C80404508D11CE1002B80F22181E7
:10200C00D8F80C80404500F01581D8F8042022F057
:10201C000302531B0F2BF0DD08EB050145F0010506
:10202C00C8F804503046D8E90264F460A66043F066
:10203C000104C7E904114C60C1E902EE48F8023012
:10204C0000F0F2F908F1080402E00C2300243360DC
:10205C00204603B0BDE8F08F4FF400704FF0400CF9
:10206C003F2477E7D3689A4208BF0CF1020C7FF447
:10207C0042AF3C69DFF848E1744584D101217A68AC
:10208C004FEAAC0399409142A5D9BC68636823F030
:10209C0003094D4503D8A9EB05030F2B7ADCDFF8B8
:1020AC0024B1494BDBF800201B6801322B4404EBB4
:1020BC00090A00F02F8103F580530F3323F47F6856
:1020CC0028F00F084146304600F0B4F9411C024696
:1020DC0000F0EF80824500F2EA803C4B19684144E5
:1020EC000846196000F04981DBF8001001930131BA
:1020FC001BBFA2EB0A0A5044CBF80020186012F068
:10210C00070B00F01181CBF108010A44CBF580518B
:10211C0090440831A1EB0801C1F30B0A514630463B
:10212C00009200F087F9421CDDE9002300F04B819E
:10213C00801A00EB0A08196848F001005144BC42AF
:10214C00BA601960506000F02481B9F10F0F40F2B1
:10215C0022814FF0050E6068A9F10C0C2CF0070CD5
:10216C0000F0010040EA0C006060BCF10F0F04EBC2
:10217C000C00C0E901EE00F22E8114465068144B9D
:10218C001A688A4238BF1960124B1A688A4238BFE3
:10219C00196090E0621943F0010345F00105656098
:1021AC003046BA600834536000F03EF9204603B064
:1021BC00BDE8F08FD9681A44A2E600BF3C040020A9
:1021CC004404002044080020440900201409002085
:1021DC003C09002040090020B2F5206F4FEA522341
:1021EC005FD3142B00F2B18003F15C01C9005B33A7
:1021FC00781879580838884200F08F804B6823F0A3
:10220C000303934202D989688842F7D1C8687A6877
:10221C00C4E902108460CC60D7E6142B59D9542B36
:10222C0000F29B802B0B03F16F0C03F16E044FEA51
:10223C00CC008FE60134A30700F108007FF4D8AE80
:10224C0053E0444642445368D8F80C1043F0010361
:10225C00536054F8083F3046D9608B6000F0E4F8C6
:10226C00F6E64FEAD50C05F108023CE62244536829
:10227C00304643F00103536000F0D6F80834E7E62B
:10228C00611945F00105656043F00105C7E90411CA
:10229C003046C1E902EE4D60A35000F0C5F8083499
:1022AC00D6E6930903F13901C9003833A0E7BC42E3
:1022BC005ED0BC68606820F003084545A8EB0503B8
:1022CC0002D80F2B3FF766AF304600F0ADF8002474
:1022DC00BEE603F15C0C03F15B044FEACC0039E67B
:1022EC0059F808394B4540F095801CF0030F0CF160
:1022FC00FF3CF5D17B6823EA01037B6049009942DE
:10230C003FF6C3AE11B9C0E6490004341942FBD004
:10231C00A44669E603F11008D4E601229B109A400A
:10232C007B681A437A6073E702EB08014942C1F3F8
:10233C000B0A51463046009200F07CF8431CDDE954
:10234C0000237FF4F5AEDA46F5E6542B26D8130BB2
:10235C0003F16F01C9006E334AE7B3F5AA7F26D8A3
:10236C00EB0B03F1780C03F177044FEACC00F1E5A9
:10237C00294B186840441860B6E6CAF30B0CBCF144
:10238C00000F7FF4B1AEBC68C84448F00100606037
:10239C00F5E61446F3E60123536095E7B3F5AA7FFF
:1023AC0024D8D30B03F17801C900773320E740F22E
:1023BC005452934224D8AB0C03F17D0C03F17C04F2
:1023CC004FEACC00C6E5ABF1080BD8444FF0000A3D
:1023DC00A8EB0208AFE604F1080130460093FFF7C2
:1023EC000DFCBC68009B60681968C8E640F254514B
:1023FC008B420BD8930C03F17D01C9007C33F7E6BB
:10240C004FF47E704FF07F0C7E24A3E54FF47E7169
:10241C007E23EDE67B6871E7140900200148FFF785
:10242C0015BD00BF080900200148FFF711BD00BF12
:10243C0008090020002238B5064D044608462A60DB
:10244C00FDF7D4FF431C00D038BD2B68002BFBD00C
:10245C00236038BD4809002010B50C46B1F90E10A8
:10246C0000F03EF9002803DB236D0344236510BD07
:10247C00A38923F48053A38110BD00BF2DE9F04143
:10248C000C46B1F90C101F46CB05054616460BD46D
:10249C0021F48051A1813B4632462846B4F90E10F6
:1024AC00BDE8F04100F01EB8B4F90E100223002272
:1024BC0000F000F9B4F90C10EAE700BF10B50C46B7
:1024CC00B1F90E1000F0F6F8A389421C0EBF23F4EC
:1024DC00805343F480532065A38110BDB1F90E10D5
:1024EC0000F05CB838B50C46114600228446074D06
:1024FC0020462A601A466446FDF7E0FE431C00D0D5
:10250C0038BD2B68002BFBD0236038BD4809002058
:10251C002DE9F047DFF87CA00646DAF80000984673
:10252C000F469146FFF792FC1B4B1B68D3F84841B2
:10253C0024B365681F2D26DC5EB96B1C0235DAF8F6
:10254C000000636044F82570FFF782FC0020BDE8B2
:10255C00F087012304EB8501C1F88890D4F8882119
:10256C00AB401A43022EC4F88821C1F80881E4D18B
:10257C00D4F88C211343C4F88C31DEE703F5A67430
:10258C00C3F84841D5E7DAF80000FFF761FC4FF0DB
:10259C00FF30DCE7380400205C270008002238B547
:1025AC00064D044608462A60FDF7A2FE431C00D0E7
:1025BC0038BD2B68002BFBD0236038BD48090020A8
:1025CC0070B500294BD006460C4610B1836B002B1E
:1025DC0048D0636ED80734D5B4F90C30002B3ED0FC
:1025EC0021463046FFF74CF9E36A054633B13046D5
:1025FC00E16998470028B8BF4FF0FF35A3891A0648
:10260C003BD4216B41B104F14003994202D03046D6
:10261C00FFF7F4FA00232363616C21B13046FFF716
:10262C00EDFA00236364FFF777FA0022636EA28150
:10263C00DB0727D5A06DFFF707FCFFF773FA2846D9
:10264C0070BDA3899905CBD4A06DFFF7FFFBB4F93E
:10265C000C30002BC4D1656E15F0010508D0002597
:10266C00284670BDFFF7D2F9636ED807B4D4E8E7FB
:10267C00A06DFFF7EDFB284670BD30462169FFF7D2
:10268C00BDFABEE7A06DFFF7E3FBD3E770B50026FC
:10269C00074D0446084611462E60FDF755FE431CB7
:1026AC0000D070BD2B68002BFBD0236070BD00BF29
:1026BC004809002038B50C46114600228446074DC7
:1026CC0020462A601A466446FDF71EFE431C00D0C5
:1026DC0038BD2B68002BFBD0236038BD4809002087
:1026EC0038B50C46114600228446074D20462A6018
:1026FC001A466446FDF710FE431C00D038BD2B680B
:10270C00002BFBD0236038BD48090020F8B500BF72
:10271C00F8BC08BC9E467047F8B500BFF8BC08BCB6
:04272C009E4670470E
:102730000000000000000000010203040607080971
:102740000000000001020304020304050607080953
:102750000A0B0C0D0E0F10100102000010000020DB
:082760006D18000831010008AA
:042768000D01000857
:10276C000024F40001000000100000001000002004
:10277C0000000000FC02002064030020CC030020B9
:10278C00000000000000000000000000000000003D
:10279C00000000000000000000000000000000002D
:1027AC00000000000000000000000000000000001D
:1027BC00000000000000000000000000000000000D
:1027CC0000000000000000000000000000000000FD
:1027DC0000000000000000000000000000000000ED
:1027EC0000000000000000000000000000000000DD
:1027FC0000000000000000000000000000000000CD
:10280C0000000000000000000000000000000000BC
:10281C0000000000000000000100000000000000AB
:10282C000E33CDAB34126DE6ECDE05000B00000070
:10283C00000000000000000000000000000000008C
:10284C00000000000000000000000000000000007C
:10285C00000000000000000000000000000000006C
:10286C00000000000000000000000000000000005C
:102B9C0000000000000000000409002000000000FC
:102BAC00000000003C0400203C04002044040020F1
:102BBC00440400204C0400204C0400205404002049
:102BCC00540400205C0400205C04002064040020F9
:102BDC00640400206C0400206C04002074040020A9
:102BEC00740400207C0400207C0400208404002059
:102BFC00840400208C0400208C0400209404002009
:102C0C00940400209C0400209C040020A4040020B8
:102C1C00A4040020AC040020AC040020B404002068
:102C2C00B4040020BC040020BC040020C404002018
:102C3C00C4040020CC040020CC040020D4040020C8
:102C4C00D4040020DC040020DC040020E404002078
:102C5C00E4040020EC040020EC040020F404002028
:102C6C00F4040020FC040020FC04002004050020D7
:102C7C00040500200C0500200C0500201405002084
:102C8C00140500201C0500201C0500202405002034
:102C9C00240500202C0500202C05002034050020E4
:102CAC00340500203C0500203C0500204405002094
:102CBC00440500204C0500204C0500205405002044
:102CCC00540500205C0500205C05002064050020F4
:102CDC00640500206C0500206C05002074050020A4
:102CEC00740500207C0500207C0500208405002054
:102CFC00840500208C0500208C0500209405002004
:102D0C00940500209C0500209C050020A4050020B3
:102D1C00A4050020AC050020AC050020B405002063
:102D2C00B4050020BC050020BC050020C405002013
:102D3C00C4050020CC050020CC050020D4050020C3
:102D4C00D4050020DC050020DC050020E405002073
:102D5C00E4050020EC050020EC050020F405002023
:102D6C00F4050020FC050020FC05002004060020D2
:102D7C00040600200C0600200C060020140600207F
:102D8C00140600201C0600201C060020240600202F
:102D9C00240600202C0600202C06002034060020DF
:102DAC00340600203C0600203C060020440600208F
:102DBC00440600204C0600204C060020540600203F
:102DCC00540600205C0600205C06002064060020EF
:102DDC00640600206C0600206C060020740600209F
:102DEC00740600207C0600207C060020840600204F
:102DFC00840600208C0600208C06002094060020FF
:102E0C00940600209C0600209C060020A4060020AE
:102E1C00A4060020AC060020AC060020B40600205E
:102E2C00B4060020BC060020BC060020C40600200E
:102E3C00C4060020CC060020CC060020D4060020BE
:102E4C00D4060020DC060020DC060020E40600206E
:102E5C00E4060020EC060020EC060020F40600201E
:102E6C00F4060020FC060020FC06002004070020CD
:102E7C00040700200C0700200C070020140700207A
:102E8C00140700201C0700201C070020240700202A
:102E9C00240700202C0700202C07002034070020DA
:102EAC00340700203C0700203C070020440700208A
:102EBC00440700204C0700204C070020540700203A
:102ECC00540700205C0700205C07002064070020EA
:102EDC00640700206C0700206C070020740700209A
:102EEC00740700207C0700207C070020840700204A
:102EFC00840700208C0700208C07002094070020FA
:102F0C00940700209C0700209C070020A4070020A9
:102F1C00A4070020AC070020AC070020B407002059
:102F2C00B4070020BC070020BC070020C407002009
:102F3C00C4070020CC070020CC070020D4070020B9
:102F4C00D4070020DC070020DC070020E407002069
:102F5C00E4070020EC070020EC070020F407002019
:102F6C00F4070020FC070020FC07002004080020C8
:102F7C00040800200C0800200C0800201408002075
:102F8C00140800201C0800201C0800202408002025
:102F9C00240800202C0800202C08002034080020D5
:0C2FAC0034080020FFFFFFFF00000200BF
:04000005080005D119
:00000001FF
